{
	"data": {
		"bytecode": {
			"linkReferences": {},
			"object": "60806040525f600155600280553480156016575f80fd5b50335f806101000a81548173ffffffffffffffffffffffffffffffffffffffff021916908373ffffffffffffffffffffffffffffffffffffffff160217905550611d98806100635f395ff3fe6080604052600436106100dc575f3560e01c806371be2e4a1161007e578063998f6ac011610058578063998f6ac01461029a5780639a4d4385146102d6578063ae169a50146102fe578063c03fb87c14610326576100dc565b806371be2e4a1461021c5780638c639a85146102465780638da5cb5b14610270576100dc565b8063476343ee116100ba578063476343ee146101845780634afe62b51461019a5780635b704749146101b6578063682e54cd146101f2576100dc565b80630b4411fb146100e05780630b7914301461011c5780631d40a8131461015c575b5f80fd5b3480156100eb575f80fd5b5061010660048036038101906101019190610f8f565b610364565b6040516101139190610fc9565b60405180910390f35b348015610127575f80fd5b50610142600480360381019061013d9190610f8f565b610381565b60405161015395949392919061106c565b60405180910390f35b348015610167575f80fd5b50610182600480360381019061017d91906110c4565b610445565b005b34801561018f575f80fd5b50610198610626565b005b6101b460048036038101906101af91906110c4565b610718565b005b3480156101c1575f80fd5b506101dc60048036038101906101d791906110c4565b6109b8565b6040516101e99190610fc9565b60405180910390f35b3480156101fd575f80fd5b506102066109e5565b60405161021391906111b9565b60405180910390f35b348015610227575f80fd5b50610230610a3b565b60405161023d9190610fc9565b60405180910390f35b348015610251575f80fd5b5061025a610a41565b6040516102679190610fc9565b60405180910390f35b34801561027b575f80fd5b50610284610a47565b6040516102919190611218565b60405180910390f35b3480156102a5575f80fd5b506102c060048036038101906102bb9190610f8f565b610a6a565b6040516102cd9190610fc9565b60405180910390f35b3480156102e1575f80fd5b506102fc60048036038101906102f7919061135d565b610a8a565b005b348015610309575f80fd5b50610324600480360381019061031f9190610f8f565b610c09565b005b348015610331575f80fd5b5061034c600480360381019061034791906113e1565b610ea2565b60405161035b9392919061141f565b60405180910390f35b5f60035f8381526020019081526020015f20600401549050919050565b6003602052805f5260405f205f91509050805f0180546103a090611481565b80601f01602080910402602001604051908101604052809291908181526020018280546103cc90611481565b80156104175780601f106103ee57610100808354040283529160200191610417565b820191905f5260205f20905b8154815290600101906020018083116103fa57829003601f168201915b505050505090806001015490806002015f9054906101000a900460ff16908060030154908060040154905085565b5f8054906101000a900473ffffffffffffffffffffffffffffffffffffffff1673ffffffffffffffffffffffffffffffffffffffff163373ffffffffffffffffffffffffffffffffffffffff16146104d2576040517f08c379a00000000000000000000000000000000000000000000000000000000081526004016104c9906114fb565b60405180910390fd5b816001548110610517576040517f08c379a000000000000000000000000000000000000000000000000000000000815260040161050e90611563565b60405180910390fd5b5f60035f8581526020019081526020015f209050806002015f9054906101000a900460ff161561057c576040517f08c379a0000000000000000000000000000000000000000000000000000000008152600401610573906115cb565b60405180910390fd5b80600101544210156105c3576040517f08c379a00000000000000000000000000000000000000000000000000000000081526004016105ba90611633565b60405180910390fd5b6001816002015f6101000a81548160ff021916908315150217905550828160030181905550837f4f3fc803aeb6c66633d2974cf9280c1df8837b69483642c792e199e239245730846040516106189190610fc9565b60405180910390a250505050565b5f8054906101000a900473ffffffffffffffffffffffffffffffffffffffff1673ffffffffffffffffffffffffffffffffffffffff163373ffffffffffffffffffffffffffffffffffffffff16146106b3576040517f08c379a00000000000000000000000000000000000000000000000000000000081526004016106aa906114fb565b60405180910390fd5b5f8054906101000a900473ffffffffffffffffffffffffffffffffffffffff1673ffffffffffffffffffffffffffffffffffffffff166108fc4790811502906040515f60405180830381858888f19350505050158015610715573d5f803e3d5ffd5b50565b81600154811061075d576040517f08c379a000000000000000000000000000000000000000000000000000000000815260040161075490611563565b60405180910390fd5b8260035f8281526020019081526020015f206001015442106107b4576040517f08c379a00000000000000000000000000000000000000000000000000000000081526004016107ab9061169b565b60405180910390fd5b5f34116107f6576040517f08c379a00000000000000000000000000000000000000000000000000000000081526004016107ed90611703565b60405180910390fd5b5f60035f8681526020019081526020015f2090505f816006015f3373ffffffffffffffffffffffffffffffffffffffff1673ffffffffffffffffffffffffffffffffffffffff1681526020019081526020015f205f01541461088d576040517f08c379a00000000000000000000000000000000000000000000000000000000081526004016108849061176b565b60405180910390fd5b60405180606001604052803481526020018581526020015f1515815250816006015f3373ffffffffffffffffffffffffffffffffffffffff1673ffffffffffffffffffffffffffffffffffffffff1681526020019081526020015f205f820151815f0155602082015181600101556040820151816002015f6101000a81548160ff02191690831515021790555090505034816005015f8681526020019081526020015f205f82825461093f91906117b6565b9250508190555034816004015f82825461095991906117b6565b925050819055503373ffffffffffffffffffffffffffffffffffffffff16857f1b8a9031cb9351278d70a994f81536e9e08c91162e64f92b2fe4766fb7a891b486346040516109a99291906117e9565b60405180910390a35050505050565b5f60035f8481526020019081526020015f206005015f8381526020019081526020015f2054905092915050565b60606004805480602002602001604051908101604052809291908181526020018280548015610a3157602002820191905f5260205f20905b815481526020019060010190808311610a1d575b5050505050905090565b60015481565b60025481565b5f8054906101000a900473ffffffffffffffffffffffffffffffffffffffff1681565b60048181548110610a79575f80fd5b905f5260205f20015f915090505481565b5f8054906101000a900473ffffffffffffffffffffffffffffffffffffffff1673ffffffffffffffffffffffffffffffffffffffff163373ffffffffffffffffffffffffffffffffffffffff1614610b17576040517f08c379a0000000000000000000000000000000000000000000000000000000008152600401610b0e906114fb565b60405180910390fd5b428111610b59576040517f08c379a0000000000000000000000000000000000000000000000000000000008152600401610b509061185a565b60405180910390fd5b5f60035f60015481526020019081526020015f20905082815f019081610b7f9190611a15565b508181600101819055506001547fee37bb5143a14810f72e86fce895be08e16090409d2e18f79b308995e39b73d48484604051610bbd929190611ae4565b60405180910390a26004600154908060018154018082558091505060019003905f5260205f20015f909190919091505560015f815480929190610bff90611b12565b9190505550505050565b806001548110610c4e576040517f08c379a0000000000000000000000000000000000000000000000000000000008152600401610c4590611563565b60405180910390fd5b5f60035f8481526020019081526020015f2090505f816006015f3373ffffffffffffffffffffffffffffffffffffffff1673ffffffffffffffffffffffffffffffffffffffff1681526020019081526020015f209050816002015f9054906101000a900460ff16610cf4576040517f08c379a0000000000000000000000000000000000000000000000000000000008152600401610ceb90611ba3565b60405180910390fd5b806002015f9054906101000a900460ff1615610d45576040517f08c379a0000000000000000000000000000000000000000000000000000000008152600401610d3c90611c0b565b60405180910390fd5b8160030154816001015414610d8f576040517f08c379a0000000000000000000000000000000000000000000000000000000008152600401610d8690611c73565b60405180910390fd5b5f826005015f846003015481526020019081526020015f205460646002546064610db99190611c91565b8560040154610dc89190611cc4565b610dd29190611d32565b835f0154610de09190611cc4565b610dea9190611d32565b90506001826002015f6101000a81548160ff0219169083151502179055503373ffffffffffffffffffffffffffffffffffffffff166108fc8290811502906040515f60405180830381858888f19350505050158015610e4b573d5f803e3d5ffd5b503373ffffffffffffffffffffffffffffffffffffffff16857f24b5efa61dd1cfc659205a97fb8ed868f3cb8c81922bab2b96423e5de1de2cb783604051610e939190610fc9565b60405180910390a35050505050565b5f805f8060035f8781526020019081526020015f206006015f8673ffffffffffffffffffffffffffffffffffffffff1673ffffffffffffffffffffffffffffffffffffffff1681526020019081526020015f206040518060600160405290815f820154815260200160018201548152602001600282015f9054906101000a900460ff1615151515815250509050805f015181602001518260400151935093509350509250925092565b5f604051905090565b5f80fd5b5f80fd5b5f819050919050565b610f6e81610f5c565b8114610f78575f80fd5b50565b5f81359050610f8981610f65565b92915050565b5f60208284031215610fa457610fa3610f54565b5b5f610fb184828501610f7b565b91505092915050565b610fc381610f5c565b82525050565b5f602082019050610fdc5f830184610fba565b92915050565b5f81519050919050565b5f82825260208201905092915050565b8281835e5f83830152505050565b5f601f19601f8301169050919050565b5f61102482610fe2565b61102e8185610fec565b935061103e818560208601610ffc565b6110478161100a565b840191505092915050565b5f8115159050919050565b61106681611052565b82525050565b5f60a0820190508181035f830152611084818861101a565b90506110936020830187610fba565b6110a0604083018661105d565b6110ad6060830185610fba565b6110ba6080830184610fba565b9695505050505050565b5f80604083850312156110da576110d9610f54565b5b5f6110e785828601610f7b565b92505060206110f885828601610f7b565b9150509250929050565b5f81519050919050565b5f82825260208201905092915050565b5f819050602082019050919050565b61113481610f5c565b82525050565b5f611145838361112b565b60208301905092915050565b5f602082019050919050565b5f61116782611102565b611171818561110c565b935061117c8361111c565b805f5b838110156111ac578151611193888261113a565b975061119e83611151565b92505060018101905061117f565b5085935050505092915050565b5f6020820190508181035f8301526111d1818461115d565b905092915050565b5f73ffffffffffffffffffffffffffffffffffffffff82169050919050565b5f611202826111d9565b9050919050565b611212816111f8565b82525050565b5f60208201905061122b5f830184611209565b92915050565b5f80fd5b5f80fd5b7f4e487b71000000000000000000000000000000000000000000000000000000005f52604160045260245ffd5b61126f8261100a565b810181811067ffffffffffffffff8211171561128e5761128d611239565b5b80604052505050565b5f6112a0610f4b565b90506112ac8282611266565b919050565b5f67ffffffffffffffff8211156112cb576112ca611239565b5b6112d48261100a565b9050602081019050919050565b828183375f83830152505050565b5f6113016112fc846112b1565b611297565b90508281526020810184848401111561131d5761131c611235565b5b6113288482856112e1565b509392505050565b5f82601f83011261134457611343611231565b5b81356113548482602086016112ef565b91505092915050565b5f806040838503121561137357611372610f54565b5b5f83013567ffffffffffffffff8111156113905761138f610f58565b5b61139c85828601611330565b92505060206113ad85828601610f7b565b9150509250929050565b6113c0816111f8565b81146113ca575f80fd5b50565b5f813590506113db816113b7565b92915050565b5f80604083850312156113f7576113f6610f54565b5b5f61140485828601610f7b565b9250506020611415858286016113cd565b9150509250929050565b5f6060820190506114325f830186610fba565b61143f6020830185610fba565b61144c604083018461105d565b949350505050565b7f4e487b71000000000000000000000000000000000000000000000000000000005f52602260045260245ffd5b5f600282049050600182168061149857607f821691505b6020821081036114ab576114aa611454565b5b50919050565b7f4e6f74206f776e657200000000000000000000000000000000000000000000005f82015250565b5f6114e5600983610fec565b91506114f0826114b1565b602082019050919050565b5f6020820190508181035f830152611512816114d9565b9050919050565b7f496e76616c6964206576656e74000000000000000000000000000000000000005f82015250565b5f61154d600d83610fec565b915061155882611519565b602082019050919050565b5f6020820190508181035f83015261157a81611541565b9050919050565b7f416c726561647920636c6f7365640000000000000000000000000000000000005f82015250565b5f6115b5600e83610fec565b91506115c082611581565b602082019050919050565b5f6020820190508181035f8301526115e2816115a9565b9050919050565b7f546f6f206561726c7900000000000000000000000000000000000000000000005f82015250565b5f61161d600983610fec565b9150611628826115e9565b602082019050919050565b5f6020820190508181035f83015261164a81611611565b9050919050565b7f4576656e742073746172746564000000000000000000000000000000000000005f82015250565b5f611685600d83610fec565b915061169082611651565b602082019050919050565b5f6020820190508181035f8301526116b281611679565b9050919050565b7f426574206d757374206265203e203000000000000000000000000000000000005f82015250565b5f6116ed600f83610fec565b91506116f8826116b9565b602082019050919050565b5f6020820190508181035f83015261171a816116e1565b9050919050565b7f416c7265616479206265740000000000000000000000000000000000000000005f82015250565b5f611755600b83610fec565b915061176082611721565b602082019050919050565b5f6020820190508181035f83015261178281611749565b9050919050565b7f4e487b71000000000000000000000000000000000000000000000000000000005f52601160045260245ffd5b5f6117c082610f5c565b91506117cb83610f5c565b92508282019050808211156117e3576117e2611789565b5b92915050565b5f6040820190506117fc5f830185610fba565b6118096020830184610fba565b9392505050565b7f54696d65206d75737420626520696e20667574757265000000000000000000005f82015250565b5f611844601683610fec565b915061184f82611810565b602082019050919050565b5f6020820190508181035f83015261187181611838565b9050919050565b5f819050815f5260205f209050919050565b5f6020601f8301049050919050565b5f82821b905092915050565b5f600883026118d47fffffffffffffffffffffffffffffffffffffffffffffffffffffffffffffffff82611899565b6118de8683611899565b95508019841693508086168417925050509392505050565b5f819050919050565b5f61191961191461190f84610f5c565b6118f6565b610f5c565b9050919050565b5f819050919050565b611932836118ff565b61194661193e82611920565b8484546118a5565b825550505050565b5f90565b61195a61194e565b611965818484611929565b505050565b5b818110156119885761197d5f82611952565b60018101905061196b565b5050565b601f8211156119cd5761199e81611878565b6119a78461188a565b810160208510156119b6578190505b6119ca6119c28561188a565b83018261196a565b50505b505050565b5f82821c905092915050565b5f6119ed5f19846008026119d2565b1980831691505092915050565b5f611a0583836119de565b9150826002028217905092915050565b611a1e82610fe2565b67ffffffffffffffff811115611a3757611a36611239565b5b611a418254611481565b611a4c82828561198c565b5f60209050601f831160018114611a7d575f8415611a6b578287015190505b611a7585826119fa565b865550611adc565b601f198416611a8b86611878565b5f5b82811015611ab257848901518255600182019150602085019450602081019050611a8d565b86831015611acf5784890151611acb601f8916826119de565b8355505b6001600288020188555050505b505050505050565b5f6040820190508181035f830152611afc818561101a565b9050611b0b6020830184610fba565b9392505050565b5f611b1c82610f5c565b91507fffffffffffffffffffffffffffffffffffffffffffffffffffffffffffffffff8203611b4e57611b4d611789565b5b600182019050919050565b7f4576656e74206e6f7420636c6f736564000000000000000000000000000000005f82015250565b5f611b8d601083610fec565b9150611b9882611b59565b602082019050919050565b5f6020820190508181035f830152611bba81611b81565b9050919050565b7f416c726561647920636c61696d656400000000000000000000000000000000005f82015250565b5f611bf5600f83610fec565b9150611c0082611bc1565b602082019050919050565b5f6020820190508181035f830152611c2281611be9565b9050919050565b7f4e6f7420612077696e6e657200000000000000000000000000000000000000005f82015250565b5f611c5d600c83610fec565b9150611c6882611c29565b602082019050919050565b5f6020820190508181035f830152611c8a81611c51565b9050919050565b5f611c9b82610f5c565b9150611ca683610f5c565b9250828203905081811115611cbe57611cbd611789565b5b92915050565b5f611cce82610f5c565b9150611cd983610f5c565b9250828202611ce781610f5c565b91508282048414831517611cfe57611cfd611789565b5b5092915050565b7f4e487b71000000000000000000000000000000000000000000000000000000005f52601260045260245ffd5b5f611d3c82610f5c565b9150611d4783610f5c565b925082611d5757611d56611d05565b5b82820490509291505056fea26469706673582212206a1b1140b588cf2a79512bcfb91cd4d98791ef7e7c0c2f8244ce00094281a5b864736f6c634300081a0033",
			"opcodes": "PUSH1 0x80 PUSH1 0x40 MSTORE PUSH0 PUSH1 0x1 SSTORE PUSH1 0x2 DUP1 SSTORE CALLVALUE DUP1 ISZERO PUSH1 0x16 JUMPI PUSH0 DUP1 REVERT JUMPDEST POP CALLER PUSH0 DUP1 PUSH2 0x100 EXP DUP2 SLOAD DUP2 PUSH20 0xFFFFFFFFFFFFFFFFFFFFFFFFFFFFFFFFFFFFFFFF MUL NOT AND SWAP1 DUP4 PUSH20 0xFFFFFFFFFFFFFFFFFFFFFFFFFFFFFFFFFFFFFFFF AND MUL OR SWAP1 SSTORE POP PUSH2 0x1D98 DUP1 PUSH2 0x63 PUSH0 CODECOPY PUSH0 RETURN INVALID PUSH1 0x80 PUSH1 0x40 MSTORE PUSH1 0x4 CALLDATASIZE LT PUSH2 0xDC JUMPI PUSH0 CALLDATALOAD PUSH1 0xE0 SHR DUP1 PUSH4 0x71BE2E4A GT PUSH2 0x7E JUMPI DUP1 PUSH4 0x998F6AC0 GT PUSH2 0x58 JUMPI DUP1 PUSH4 0x998F6AC0 EQ PUSH2 0x29A JUMPI DUP1 PUSH4 0x9A4D4385 EQ PUSH2 0x2D6 JUMPI DUP1 PUSH4 0xAE169A50 EQ PUSH2 0x2FE JUMPI DUP1 PUSH4 0xC03FB87C EQ PUSH2 0x326 JUMPI PUSH2 0xDC JUMP JUMPDEST DUP1 PUSH4 0x71BE2E4A EQ PUSH2 0x21C JUMPI DUP1 PUSH4 0x8C639A85 EQ PUSH2 0x246 JUMPI DUP1 PUSH4 0x8DA5CB5B EQ PUSH2 0x270 JUMPI PUSH2 0xDC JUMP JUMPDEST DUP1 PUSH4 0x476343EE GT PUSH2 0xBA JUMPI DUP1 PUSH4 0x476343EE EQ PUSH2 0x184 JUMPI DUP1 PUSH4 0x4AFE62B5 EQ PUSH2 0x19A JUMPI DUP1 PUSH4 0x5B704749 EQ PUSH2 0x1B6 JUMPI DUP1 PUSH4 0x682E54CD EQ PUSH2 0x1F2 JUMPI PUSH2 0xDC JUMP JUMPDEST DUP1 PUSH4 0xB4411FB EQ PUSH2 0xE0 JUMPI DUP1 PUSH4 0xB791430 EQ PUSH2 0x11C JUMPI DUP1 PUSH4 0x1D40A813 EQ PUSH2 0x15C JUMPI JUMPDEST PUSH0 DUP1 REVERT JUMPDEST CALLVALUE DUP1 ISZERO PUSH2 0xEB JUMPI PUSH0 DUP1 REVERT JUMPDEST POP PUSH2 0x106 PUSH1 0x4 DUP1 CALLDATASIZE SUB DUP2 ADD SWAP1 PUSH2 0x101 SWAP2 SWAP1 PUSH2 0xF8F JUMP JUMPDEST PUSH2 0x364 JUMP JUMPDEST PUSH1 0x40 MLOAD PUSH2 0x113 SWAP2 SWAP1 PUSH2 0xFC9 JUMP JUMPDEST PUSH1 0x40 MLOAD DUP1 SWAP2 SUB SWAP1 RETURN JUMPDEST CALLVALUE DUP1 ISZERO PUSH2 0x127 JUMPI PUSH0 DUP1 REVERT JUMPDEST POP PUSH2 0x142 PUSH1 0x4 DUP1 CALLDATASIZE SUB DUP2 ADD SWAP1 PUSH2 0x13D SWAP2 SWAP1 PUSH2 0xF8F JUMP JUMPDEST PUSH2 0x381 JUMP JUMPDEST PUSH1 0x40 MLOAD PUSH2 0x153 SWAP6 SWAP5 SWAP4 SWAP3 SWAP2 SWAP1 PUSH2 0x106C JUMP JUMPDEST PUSH1 0x40 MLOAD DUP1 SWAP2 SUB SWAP1 RETURN JUMPDEST CALLVALUE DUP1 ISZERO PUSH2 0x167 JUMPI PUSH0 DUP1 REVERT JUMPDEST POP PUSH2 0x182 PUSH1 0x4 DUP1 CALLDATASIZE SUB DUP2 ADD SWAP1 PUSH2 0x17D SWAP2 SWAP1 PUSH2 0x10C4 JUMP JUMPDEST PUSH2 0x445 JUMP JUMPDEST STOP JUMPDEST CALLVALUE DUP1 ISZERO PUSH2 0x18F JUMPI PUSH0 DUP1 REVERT JUMPDEST POP PUSH2 0x198 PUSH2 0x626 JUMP JUMPDEST STOP JUMPDEST PUSH2 0x1B4 PUSH1 0x4 DUP1 CALLDATASIZE SUB DUP2 ADD SWAP1 PUSH2 0x1AF SWAP2 SWAP1 PUSH2 0x10C4 JUMP JUMPDEST PUSH2 0x718 JUMP JUMPDEST STOP JUMPDEST CALLVALUE DUP1 ISZERO PUSH2 0x1C1 JUMPI PUSH0 DUP1 REVERT JUMPDEST POP PUSH2 0x1DC PUSH1 0x4 DUP1 CALLDATASIZE SUB DUP2 ADD SWAP1 PUSH2 0x1D7 SWAP2 SWAP1 PUSH2 0x10C4 JUMP JUMPDEST PUSH2 0x9B8 JUMP JUMPDEST PUSH1 0x40 MLOAD PUSH2 0x1E9 SWAP2 SWAP1 PUSH2 0xFC9 JUMP JUMPDEST PUSH1 0x40 MLOAD DUP1 SWAP2 SUB SWAP1 RETURN JUMPDEST CALLVALUE DUP1 ISZERO PUSH2 0x1FD JUMPI PUSH0 DUP1 REVERT JUMPDEST POP PUSH2 0x206 PUSH2 0x9E5 JUMP JUMPDEST PUSH1 0x40 MLOAD PUSH2 0x213 SWAP2 SWAP1 PUSH2 0x11B9 JUMP JUMPDEST PUSH1 0x40 MLOAD DUP1 SWAP2 SUB SWAP1 RETURN JUMPDEST CALLVALUE DUP1 ISZERO PUSH2 0x227 JUMPI PUSH0 DUP1 REVERT JUMPDEST POP PUSH2 0x230 PUSH2 0xA3B JUMP JUMPDEST PUSH1 0x40 MLOAD PUSH2 0x23D SWAP2 SWAP1 PUSH2 0xFC9 JUMP JUMPDEST PUSH1 0x40 MLOAD DUP1 SWAP2 SUB SWAP1 RETURN JUMPDEST CALLVALUE DUP1 ISZERO PUSH2 0x251 JUMPI PUSH0 DUP1 REVERT JUMPDEST POP PUSH2 0x25A PUSH2 0xA41 JUMP JUMPDEST PUSH1 0x40 MLOAD PUSH2 0x267 SWAP2 SWAP1 PUSH2 0xFC9 JUMP JUMPDEST PUSH1 0x40 MLOAD DUP1 SWAP2 SUB SWAP1 RETURN JUMPDEST CALLVALUE DUP1 ISZERO PUSH2 0x27B JUMPI PUSH0 DUP1 REVERT JUMPDEST POP PUSH2 0x284 PUSH2 0xA47 JUMP JUMPDEST PUSH1 0x40 MLOAD PUSH2 0x291 SWAP2 SWAP1 PUSH2 0x1218 JUMP JUMPDEST PUSH1 0x40 MLOAD DUP1 SWAP2 SUB SWAP1 RETURN JUMPDEST CALLVALUE DUP1 ISZERO PUSH2 0x2A5 JUMPI PUSH0 DUP1 REVERT JUMPDEST POP PUSH2 0x2C0 PUSH1 0x4 DUP1 CALLDATASIZE SUB DUP2 ADD SWAP1 PUSH2 0x2BB SWAP2 SWAP1 PUSH2 0xF8F JUMP JUMPDEST PUSH2 0xA6A JUMP JUMPDEST PUSH1 0x40 MLOAD PUSH2 0x2CD SWAP2 SWAP1 PUSH2 0xFC9 JUMP JUMPDEST PUSH1 0x40 MLOAD DUP1 SWAP2 SUB SWAP1 RETURN JUMPDEST CALLVALUE DUP1 ISZERO PUSH2 0x2E1 JUMPI PUSH0 DUP1 REVERT JUMPDEST POP PUSH2 0x2FC PUSH1 0x4 DUP1 CALLDATASIZE SUB DUP2 ADD SWAP1 PUSH2 0x2F7 SWAP2 SWAP1 PUSH2 0x135D JUMP JUMPDEST PUSH2 0xA8A JUMP JUMPDEST STOP JUMPDEST CALLVALUE DUP1 ISZERO PUSH2 0x309 JUMPI PUSH0 DUP1 REVERT JUMPDEST POP PUSH2 0x324 PUSH1 0x4 DUP1 CALLDATASIZE SUB DUP2 ADD SWAP1 PUSH2 0x31F SWAP2 SWAP1 PUSH2 0xF8F JUMP JUMPDEST PUSH2 0xC09 JUMP JUMPDEST STOP JUMPDEST CALLVALUE DUP1 ISZERO PUSH2 0x331 JUMPI PUSH0 DUP1 REVERT JUMPDEST POP PUSH2 0x34C PUSH1 0x4 DUP1 CALLDATASIZE SUB DUP2 ADD SWAP1 PUSH2 0x347 SWAP2 SWAP1 PUSH2 0x13E1 JUMP JUMPDEST PUSH2 0xEA2 JUMP JUMPDEST PUSH1 0x40 MLOAD PUSH2 0x35B SWAP4 SWAP3 SWAP2 SWAP1 PUSH2 0x141F JUMP JUMPDEST PUSH1 0x40 MLOAD DUP1 SWAP2 SUB SWAP1 RETURN JUMPDEST PUSH0 PUSH1 0x3 PUSH0 DUP4 DUP2 MSTORE PUSH1 0x20 ADD SWAP1 DUP2 MSTORE PUSH1 0x20 ADD PUSH0 KECCAK256 PUSH1 0x4 ADD SLOAD SWAP1 POP SWAP2 SWAP1 POP JUMP JUMPDEST PUSH1 0x3 PUSH1 0x20 MSTORE DUP1 PUSH0 MSTORE PUSH1 0x40 PUSH0 KECCAK256 PUSH0 SWAP2 POP SWAP1 POP DUP1 PUSH0 ADD DUP1 SLOAD PUSH2 0x3A0 SWAP1 PUSH2 0x1481 JUMP JUMPDEST DUP1 PUSH1 0x1F ADD PUSH1 0x20 DUP1 SWAP2 DIV MUL PUSH1 0x20 ADD PUSH1 0x40 MLOAD SWAP1 DUP2 ADD PUSH1 0x40 MSTORE DUP1 SWAP3 SWAP2 SWAP1 DUP2 DUP2 MSTORE PUSH1 0x20 ADD DUP3 DUP1 SLOAD PUSH2 0x3CC SWAP1 PUSH2 0x1481 JUMP JUMPDEST DUP1 ISZERO PUSH2 0x417 JUMPI DUP1 PUSH1 0x1F LT PUSH2 0x3EE JUMPI PUSH2 0x100 DUP1 DUP4 SLOAD DIV MUL DUP4 MSTORE SWAP2 PUSH1 0x20 ADD SWAP2 PUSH2 0x417 JUMP JUMPDEST DUP3 ADD SWAP2 SWAP1 PUSH0 MSTORE PUSH1 0x20 PUSH0 KECCAK256 SWAP1 JUMPDEST DUP2 SLOAD DUP2 MSTORE SWAP1 PUSH1 0x1 ADD SWAP1 PUSH1 0x20 ADD DUP1 DUP4 GT PUSH2 0x3FA JUMPI DUP3 SWAP1 SUB PUSH1 0x1F AND DUP3 ADD SWAP2 JUMPDEST POP POP POP POP POP SWAP1 DUP1 PUSH1 0x1 ADD SLOAD SWAP1 DUP1 PUSH1 0x2 ADD PUSH0 SWAP1 SLOAD SWAP1 PUSH2 0x100 EXP SWAP1 DIV PUSH1 0xFF AND SWAP1 DUP1 PUSH1 0x3 ADD SLOAD SWAP1 DUP1 PUSH1 0x4 ADD SLOAD SWAP1 POP DUP6 JUMP JUMPDEST PUSH0 DUP1 SLOAD SWAP1 PUSH2 0x100 EXP SWAP1 DIV PUSH20 0xFFFFFFFFFFFFFFFFFFFFFFFFFFFFFFFFFFFFFFFF AND PUSH20 0xFFFFFFFFFFFFFFFFFFFFFFFFFFFFFFFFFFFFFFFF AND CALLER PUSH20 0xFFFFFFFFFFFFFFFFFFFFFFFFFFFFFFFFFFFFFFFF AND EQ PUSH2 0x4D2 JUMPI PUSH1 0x40 MLOAD PUSH32 0x8C379A000000000000000000000000000000000000000000000000000000000 DUP2 MSTORE PUSH1 0x4 ADD PUSH2 0x4C9 SWAP1 PUSH2 0x14FB JUMP JUMPDEST PUSH1 0x40 MLOAD DUP1 SWAP2 SUB SWAP1 REVERT JUMPDEST DUP2 PUSH1 0x1 SLOAD DUP2 LT PUSH2 0x517 JUMPI PUSH1 0x40 MLOAD PUSH32 0x8C379A000000000000000000000000000000000000000000000000000000000 DUP2 MSTORE PUSH1 0x4 ADD PUSH2 0x50E SWAP1 PUSH2 0x1563 JUMP JUMPDEST PUSH1 0x40 MLOAD DUP1 SWAP2 SUB SWAP1 REVERT JUMPDEST PUSH0 PUSH1 0x3 PUSH0 DUP6 DUP2 MSTORE PUSH1 0x20 ADD SWAP1 DUP2 MSTORE PUSH1 0x20 ADD PUSH0 KECCAK256 SWAP1 POP DUP1 PUSH1 0x2 ADD PUSH0 SWAP1 SLOAD SWAP1 PUSH2 0x100 EXP SWAP1 DIV PUSH1 0xFF AND ISZERO PUSH2 0x57C JUMPI PUSH1 0x40 MLOAD PUSH32 0x8C379A000000000000000000000000000000000000000000000000000000000 DUP2 MSTORE PUSH1 0x4 ADD PUSH2 0x573 SWAP1 PUSH2 0x15CB JUMP JUMPDEST PUSH1 0x40 MLOAD DUP1 SWAP2 SUB SWAP1 REVERT JUMPDEST DUP1 PUSH1 0x1 ADD SLOAD TIMESTAMP LT ISZERO PUSH2 0x5C3 JUMPI PUSH1 0x40 MLOAD PUSH32 0x8C379A000000000000000000000000000000000000000000000000000000000 DUP2 MSTORE PUSH1 0x4 ADD PUSH2 0x5BA SWAP1 PUSH2 0x1633 JUMP JUMPDEST PUSH1 0x40 MLOAD DUP1 SWAP2 SUB SWAP1 REVERT JUMPDEST PUSH1 0x1 DUP2 PUSH1 0x2 ADD PUSH0 PUSH2 0x100 EXP DUP2 SLOAD DUP2 PUSH1 0xFF MUL NOT AND SWAP1 DUP4 ISZERO ISZERO MUL OR SWAP1 SSTORE POP DUP3 DUP2 PUSH1 0x3 ADD DUP2 SWAP1 SSTORE POP DUP4 PUSH32 0x4F3FC803AEB6C66633D2974CF9280C1DF8837B69483642C792E199E239245730 DUP5 PUSH1 0x40 MLOAD PUSH2 0x618 SWAP2 SWAP1 PUSH2 0xFC9 JUMP JUMPDEST PUSH1 0x40 MLOAD DUP1 SWAP2 SUB SWAP1 LOG2 POP POP POP POP JUMP JUMPDEST PUSH0 DUP1 SLOAD SWAP1 PUSH2 0x100 EXP SWAP1 DIV PUSH20 0xFFFFFFFFFFFFFFFFFFFFFFFFFFFFFFFFFFFFFFFF AND PUSH20 0xFFFFFFFFFFFFFFFFFFFFFFFFFFFFFFFFFFFFFFFF AND CALLER PUSH20 0xFFFFFFFFFFFFFFFFFFFFFFFFFFFFFFFFFFFFFFFF AND EQ PUSH2 0x6B3 JUMPI PUSH1 0x40 MLOAD PUSH32 0x8C379A000000000000000000000000000000000000000000000000000000000 DUP2 MSTORE PUSH1 0x4 ADD PUSH2 0x6AA SWAP1 PUSH2 0x14FB JUMP JUMPDEST PUSH1 0x40 MLOAD DUP1 SWAP2 SUB SWAP1 REVERT JUMPDEST PUSH0 DUP1 SLOAD SWAP1 PUSH2 0x100 EXP SWAP1 DIV PUSH20 0xFFFFFFFFFFFFFFFFFFFFFFFFFFFFFFFFFFFFFFFF AND PUSH20 0xFFFFFFFFFFFFFFFFFFFFFFFFFFFFFFFFFFFFFFFF AND PUSH2 0x8FC SELFBALANCE SWAP1 DUP2 ISZERO MUL SWAP1 PUSH1 0x40 MLOAD PUSH0 PUSH1 0x40 MLOAD DUP1 DUP4 SUB DUP2 DUP6 DUP9 DUP9 CALL SWAP4 POP POP POP POP ISZERO DUP1 ISZERO PUSH2 0x715 JUMPI RETURNDATASIZE PUSH0 DUP1 RETURNDATACOPY RETURNDATASIZE PUSH0 REVERT JUMPDEST POP JUMP JUMPDEST DUP2 PUSH1 0x1 SLOAD DUP2 LT PUSH2 0x75D JUMPI PUSH1 0x40 MLOAD PUSH32 0x8C379A000000000000000000000000000000000000000000000000000000000 DUP2 MSTORE PUSH1 0x4 ADD PUSH2 0x754 SWAP1 PUSH2 0x1563 JUMP JUMPDEST PUSH1 0x40 MLOAD DUP1 SWAP2 SUB SWAP1 REVERT JUMPDEST DUP3 PUSH1 0x3 PUSH0 DUP3 DUP2 MSTORE PUSH1 0x20 ADD SWAP1 DUP2 MSTORE PUSH1 0x20 ADD PUSH0 KECCAK256 PUSH1 0x1 ADD SLOAD TIMESTAMP LT PUSH2 0x7B4 JUMPI PUSH1 0x40 MLOAD PUSH32 0x8C379A000000000000000000000000000000000000000000000000000000000 DUP2 MSTORE PUSH1 0x4 ADD PUSH2 0x7AB SWAP1 PUSH2 0x169B JUMP JUMPDEST PUSH1 0x40 MLOAD DUP1 SWAP2 SUB SWAP1 REVERT JUMPDEST PUSH0 CALLVALUE GT PUSH2 0x7F6 JUMPI PUSH1 0x40 MLOAD PUSH32 0x8C379A000000000000000000000000000000000000000000000000000000000 DUP2 MSTORE PUSH1 0x4 ADD PUSH2 0x7ED SWAP1 PUSH2 0x1703 JUMP JUMPDEST PUSH1 0x40 MLOAD DUP1 SWAP2 SUB SWAP1 REVERT JUMPDEST PUSH0 PUSH1 0x3 PUSH0 DUP7 DUP2 MSTORE PUSH1 0x20 ADD SWAP1 DUP2 MSTORE PUSH1 0x20 ADD PUSH0 KECCAK256 SWAP1 POP PUSH0 DUP2 PUSH1 0x6 ADD PUSH0 CALLER PUSH20 0xFFFFFFFFFFFFFFFFFFFFFFFFFFFFFFFFFFFFFFFF AND PUSH20 0xFFFFFFFFFFFFFFFFFFFFFFFFFFFFFFFFFFFFFFFF AND DUP2 MSTORE PUSH1 0x20 ADD SWAP1 DUP2 MSTORE PUSH1 0x20 ADD PUSH0 KECCAK256 PUSH0 ADD SLOAD EQ PUSH2 0x88D JUMPI PUSH1 0x40 MLOAD PUSH32 0x8C379A000000000000000000000000000000000000000000000000000000000 DUP2 MSTORE PUSH1 0x4 ADD PUSH2 0x884 SWAP1 PUSH2 0x176B JUMP JUMPDEST PUSH1 0x40 MLOAD DUP1 SWAP2 SUB SWAP1 REVERT JUMPDEST PUSH1 0x40 MLOAD DUP1 PUSH1 0x60 ADD PUSH1 0x40 MSTORE DUP1 CALLVALUE DUP2 MSTORE PUSH1 0x20 ADD DUP6 DUP2 MSTORE PUSH1 0x20 ADD PUSH0 ISZERO ISZERO DUP2 MSTORE POP DUP2 PUSH1 0x6 ADD PUSH0 CALLER PUSH20 0xFFFFFFFFFFFFFFFFFFFFFFFFFFFFFFFFFFFFFFFF AND PUSH20 0xFFFFFFFFFFFFFFFFFFFFFFFFFFFFFFFFFFFFFFFF AND DUP2 MSTORE PUSH1 0x20 ADD SWAP1 DUP2 MSTORE PUSH1 0x20 ADD PUSH0 KECCAK256 PUSH0 DUP3 ADD MLOAD DUP2 PUSH0 ADD SSTORE PUSH1 0x20 DUP3 ADD MLOAD DUP2 PUSH1 0x1 ADD SSTORE PUSH1 0x40 DUP3 ADD MLOAD DUP2 PUSH1 0x2 ADD PUSH0 PUSH2 0x100 EXP DUP2 SLOAD DUP2 PUSH1 0xFF MUL NOT AND SWAP1 DUP4 ISZERO ISZERO MUL OR SWAP1 SSTORE POP SWAP1 POP POP CALLVALUE DUP2 PUSH1 0x5 ADD PUSH0 DUP7 DUP2 MSTORE PUSH1 0x20 ADD SWAP1 DUP2 MSTORE PUSH1 0x20 ADD PUSH0 KECCAK256 PUSH0 DUP3 DUP3 SLOAD PUSH2 0x93F SWAP2 SWAP1 PUSH2 0x17B6 JUMP JUMPDEST SWAP3 POP POP DUP2 SWAP1 SSTORE POP CALLVALUE DUP2 PUSH1 0x4 ADD PUSH0 DUP3 DUP3 SLOAD PUSH2 0x959 SWAP2 SWAP1 PUSH2 0x17B6 JUMP JUMPDEST SWAP3 POP POP DUP2 SWAP1 SSTORE POP CALLER PUSH20 0xFFFFFFFFFFFFFFFFFFFFFFFFFFFFFFFFFFFFFFFF AND DUP6 PUSH32 0x1B8A9031CB9351278D70A994F81536E9E08C91162E64F92B2FE4766FB7A891B4 DUP7 CALLVALUE PUSH1 0x40 MLOAD PUSH2 0x9A9 SWAP3 SWAP2 SWAP1 PUSH2 0x17E9 JUMP JUMPDEST PUSH1 0x40 MLOAD DUP1 SWAP2 SUB SWAP1 LOG3 POP POP POP POP POP JUMP JUMPDEST PUSH0 PUSH1 0x3 PUSH0 DUP5 DUP2 MSTORE PUSH1 0x20 ADD SWAP1 DUP2 MSTORE PUSH1 0x20 ADD PUSH0 KECCAK256 PUSH1 0x5 ADD PUSH0 DUP4 DUP2 MSTORE PUSH1 0x20 ADD SWAP1 DUP2 MSTORE PUSH1 0x20 ADD PUSH0 KECCAK256 SLOAD SWAP1 POP SWAP3 SWAP2 POP POP JUMP JUMPDEST PUSH1 0x60 PUSH1 0x4 DUP1 SLOAD DUP1 PUSH1 0x20 MUL PUSH1 0x20 ADD PUSH1 0x40 MLOAD SWAP1 DUP2 ADD PUSH1 0x40 MSTORE DUP1 SWAP3 SWAP2 SWAP1 DUP2 DUP2 MSTORE PUSH1 0x20 ADD DUP3 DUP1 SLOAD DUP1 ISZERO PUSH2 0xA31 JUMPI PUSH1 0x20 MUL DUP3 ADD SWAP2 SWAP1 PUSH0 MSTORE PUSH1 0x20 PUSH0 KECCAK256 SWAP1 JUMPDEST DUP2 SLOAD DUP2 MSTORE PUSH1 0x20 ADD SWAP1 PUSH1 0x1 ADD SWAP1 DUP1 DUP4 GT PUSH2 0xA1D JUMPI JUMPDEST POP POP POP POP POP SWAP1 POP SWAP1 JUMP JUMPDEST PUSH1 0x1 SLOAD DUP2 JUMP JUMPDEST PUSH1 0x2 SLOAD DUP2 JUMP JUMPDEST PUSH0 DUP1 SLOAD SWAP1 PUSH2 0x100 EXP SWAP1 DIV PUSH20 0xFFFFFFFFFFFFFFFFFFFFFFFFFFFFFFFFFFFFFFFF AND DUP2 JUMP JUMPDEST PUSH1 0x4 DUP2 DUP2 SLOAD DUP2 LT PUSH2 0xA79 JUMPI PUSH0 DUP1 REVERT JUMPDEST SWAP1 PUSH0 MSTORE PUSH1 0x20 PUSH0 KECCAK256 ADD PUSH0 SWAP2 POP SWAP1 POP SLOAD DUP2 JUMP JUMPDEST PUSH0 DUP1 SLOAD SWAP1 PUSH2 0x100 EXP SWAP1 DIV PUSH20 0xFFFFFFFFFFFFFFFFFFFFFFFFFFFFFFFFFFFFFFFF AND PUSH20 0xFFFFFFFFFFFFFFFFFFFFFFFFFFFFFFFFFFFFFFFF AND CALLER PUSH20 0xFFFFFFFFFFFFFFFFFFFFFFFFFFFFFFFFFFFFFFFF AND EQ PUSH2 0xB17 JUMPI PUSH1 0x40 MLOAD PUSH32 0x8C379A000000000000000000000000000000000000000000000000000000000 DUP2 MSTORE PUSH1 0x4 ADD PUSH2 0xB0E SWAP1 PUSH2 0x14FB JUMP JUMPDEST PUSH1 0x40 MLOAD DUP1 SWAP2 SUB SWAP1 REVERT JUMPDEST TIMESTAMP DUP2 GT PUSH2 0xB59 JUMPI PUSH1 0x40 MLOAD PUSH32 0x8C379A000000000000000000000000000000000000000000000000000000000 DUP2 MSTORE PUSH1 0x4 ADD PUSH2 0xB50 SWAP1 PUSH2 0x185A JUMP JUMPDEST PUSH1 0x40 MLOAD DUP1 SWAP2 SUB SWAP1 REVERT JUMPDEST PUSH0 PUSH1 0x3 PUSH0 PUSH1 0x1 SLOAD DUP2 MSTORE PUSH1 0x20 ADD SWAP1 DUP2 MSTORE PUSH1 0x20 ADD PUSH0 KECCAK256 SWAP1 POP DUP3 DUP2 PUSH0 ADD SWAP1 DUP2 PUSH2 0xB7F SWAP2 SWAP1 PUSH2 0x1A15 JUMP JUMPDEST POP DUP2 DUP2 PUSH1 0x1 ADD DUP2 SWAP1 SSTORE POP PUSH1 0x1 SLOAD PUSH32 0xEE37BB5143A14810F72E86FCE895BE08E16090409D2E18F79B308995E39B73D4 DUP5 DUP5 PUSH1 0x40 MLOAD PUSH2 0xBBD SWAP3 SWAP2 SWAP1 PUSH2 0x1AE4 JUMP JUMPDEST PUSH1 0x40 MLOAD DUP1 SWAP2 SUB SWAP1 LOG2 PUSH1 0x4 PUSH1 0x1 SLOAD SWAP1 DUP1 PUSH1 0x1 DUP2 SLOAD ADD DUP1 DUP3 SSTORE DUP1 SWAP2 POP POP PUSH1 0x1 SWAP1 SUB SWAP1 PUSH0 MSTORE PUSH1 0x20 PUSH0 KECCAK256 ADD PUSH0 SWAP1 SWAP2 SWAP1 SWAP2 SWAP1 SWAP2 POP SSTORE PUSH1 0x1 PUSH0 DUP2 SLOAD DUP1 SWAP3 SWAP2 SWAP1 PUSH2 0xBFF SWAP1 PUSH2 0x1B12 JUMP JUMPDEST SWAP2 SWAP1 POP SSTORE POP POP POP POP JUMP JUMPDEST DUP1 PUSH1 0x1 SLOAD DUP2 LT PUSH2 0xC4E JUMPI PUSH1 0x40 MLOAD PUSH32 0x8C379A000000000000000000000000000000000000000000000000000000000 DUP2 MSTORE PUSH1 0x4 ADD PUSH2 0xC45 SWAP1 PUSH2 0x1563 JUMP JUMPDEST PUSH1 0x40 MLOAD DUP1 SWAP2 SUB SWAP1 REVERT JUMPDEST PUSH0 PUSH1 0x3 PUSH0 DUP5 DUP2 MSTORE PUSH1 0x20 ADD SWAP1 DUP2 MSTORE PUSH1 0x20 ADD PUSH0 KECCAK256 SWAP1 POP PUSH0 DUP2 PUSH1 0x6 ADD PUSH0 CALLER PUSH20 0xFFFFFFFFFFFFFFFFFFFFFFFFFFFFFFFFFFFFFFFF AND PUSH20 0xFFFFFFFFFFFFFFFFFFFFFFFFFFFFFFFFFFFFFFFF AND DUP2 MSTORE PUSH1 0x20 ADD SWAP1 DUP2 MSTORE PUSH1 0x20 ADD PUSH0 KECCAK256 SWAP1 POP DUP2 PUSH1 0x2 ADD PUSH0 SWAP1 SLOAD SWAP1 PUSH2 0x100 EXP SWAP1 DIV PUSH1 0xFF AND PUSH2 0xCF4 JUMPI PUSH1 0x40 MLOAD PUSH32 0x8C379A000000000000000000000000000000000000000000000000000000000 DUP2 MSTORE PUSH1 0x4 ADD PUSH2 0xCEB SWAP1 PUSH2 0x1BA3 JUMP JUMPDEST PUSH1 0x40 MLOAD DUP1 SWAP2 SUB SWAP1 REVERT JUMPDEST DUP1 PUSH1 0x2 ADD PUSH0 SWAP1 SLOAD SWAP1 PUSH2 0x100 EXP SWAP1 DIV PUSH1 0xFF AND ISZERO PUSH2 0xD45 JUMPI PUSH1 0x40 MLOAD PUSH32 0x8C379A000000000000000000000000000000000000000000000000000000000 DUP2 MSTORE PUSH1 0x4 ADD PUSH2 0xD3C SWAP1 PUSH2 0x1C0B JUMP JUMPDEST PUSH1 0x40 MLOAD DUP1 SWAP2 SUB SWAP1 REVERT JUMPDEST DUP2 PUSH1 0x3 ADD SLOAD DUP2 PUSH1 0x1 ADD SLOAD EQ PUSH2 0xD8F JUMPI PUSH1 0x40 MLOAD PUSH32 0x8C379A000000000000000000000000000000000000000000000000000000000 DUP2 MSTORE PUSH1 0x4 ADD PUSH2 0xD86 SWAP1 PUSH2 0x1C73 JUMP JUMPDEST PUSH1 0x40 MLOAD DUP1 SWAP2 SUB SWAP1 REVERT JUMPDEST PUSH0 DUP3 PUSH1 0x5 ADD PUSH0 DUP5 PUSH1 0x3 ADD SLOAD DUP2 MSTORE PUSH1 0x20 ADD SWAP1 DUP2 MSTORE PUSH1 0x20 ADD PUSH0 KECCAK256 SLOAD PUSH1 0x64 PUSH1 0x2 SLOAD PUSH1 0x64 PUSH2 0xDB9 SWAP2 SWAP1 PUSH2 0x1C91 JUMP JUMPDEST DUP6 PUSH1 0x4 ADD SLOAD PUSH2 0xDC8 SWAP2 SWAP1 PUSH2 0x1CC4 JUMP JUMPDEST PUSH2 0xDD2 SWAP2 SWAP1 PUSH2 0x1D32 JUMP JUMPDEST DUP4 PUSH0 ADD SLOAD PUSH2 0xDE0 SWAP2 SWAP1 PUSH2 0x1CC4 JUMP JUMPDEST PUSH2 0xDEA SWAP2 SWAP1 PUSH2 0x1D32 JUMP JUMPDEST SWAP1 POP PUSH1 0x1 DUP3 PUSH1 0x2 ADD PUSH0 PUSH2 0x100 EXP DUP2 SLOAD DUP2 PUSH1 0xFF MUL NOT AND SWAP1 DUP4 ISZERO ISZERO MUL OR SWAP1 SSTORE POP CALLER PUSH20 0xFFFFFFFFFFFFFFFFFFFFFFFFFFFFFFFFFFFFFFFF AND PUSH2 0x8FC DUP3 SWAP1 DUP2 ISZERO MUL SWAP1 PUSH1 0x40 MLOAD PUSH0 PUSH1 0x40 MLOAD DUP1 DUP4 SUB DUP2 DUP6 DUP9 DUP9 CALL SWAP4 POP POP POP POP ISZERO DUP1 ISZERO PUSH2 0xE4B JUMPI RETURNDATASIZE PUSH0 DUP1 RETURNDATACOPY RETURNDATASIZE PUSH0 REVERT JUMPDEST POP CALLER PUSH20 0xFFFFFFFFFFFFFFFFFFFFFFFFFFFFFFFFFFFFFFFF AND DUP6 PUSH32 0x24B5EFA61DD1CFC659205A97FB8ED868F3CB8C81922BAB2B96423E5DE1DE2CB7 DUP4 PUSH1 0x40 MLOAD PUSH2 0xE93 SWAP2 SWAP1 PUSH2 0xFC9 JUMP JUMPDEST PUSH1 0x40 MLOAD DUP1 SWAP2 SUB SWAP1 LOG3 POP POP POP POP POP JUMP JUMPDEST PUSH0 DUP1 PUSH0 DUP1 PUSH1 0x3 PUSH0 DUP8 DUP2 MSTORE PUSH1 0x20 ADD SWAP1 DUP2 MSTORE PUSH1 0x20 ADD PUSH0 KECCAK256 PUSH1 0x6 ADD PUSH0 DUP7 PUSH20 0xFFFFFFFFFFFFFFFFFFFFFFFFFFFFFFFFFFFFFFFF AND PUSH20 0xFFFFFFFFFFFFFFFFFFFFFFFFFFFFFFFFFFFFFFFF AND DUP2 MSTORE PUSH1 0x20 ADD SWAP1 DUP2 MSTORE PUSH1 0x20 ADD PUSH0 KECCAK256 PUSH1 0x40 MLOAD DUP1 PUSH1 0x60 ADD PUSH1 0x40 MSTORE SWAP1 DUP2 PUSH0 DUP3 ADD SLOAD DUP2 MSTORE PUSH1 0x20 ADD PUSH1 0x1 DUP3 ADD SLOAD DUP2 MSTORE PUSH1 0x20 ADD PUSH1 0x2 DUP3 ADD PUSH0 SWAP1 SLOAD SWAP1 PUSH2 0x100 EXP SWAP1 DIV PUSH1 0xFF AND ISZERO ISZERO ISZERO ISZERO DUP2 MSTORE POP POP SWAP1 POP DUP1 PUSH0 ADD MLOAD DUP2 PUSH1 0x20 ADD MLOAD DUP3 PUSH1 0x40 ADD MLOAD SWAP4 POP SWAP4 POP SWAP4 POP POP SWAP3 POP SWAP3 POP SWAP3 JUMP JUMPDEST PUSH0 PUSH1 0x40 MLOAD SWAP1 POP SWAP1 JUMP JUMPDEST PUSH0 DUP1 REVERT JUMPDEST PUSH0 DUP1 REVERT JUMPDEST PUSH0 DUP2 SWAP1 POP SWAP2 SWAP1 POP JUMP JUMPDEST PUSH2 0xF6E DUP2 PUSH2 0xF5C JUMP JUMPDEST DUP2 EQ PUSH2 0xF78 JUMPI PUSH0 DUP1 REVERT JUMPDEST POP JUMP JUMPDEST PUSH0 DUP2 CALLDATALOAD SWAP1 POP PUSH2 0xF89 DUP2 PUSH2 0xF65 JUMP JUMPDEST SWAP3 SWAP2 POP POP JUMP JUMPDEST PUSH0 PUSH1 0x20 DUP3 DUP5 SUB SLT ISZERO PUSH2 0xFA4 JUMPI PUSH2 0xFA3 PUSH2 0xF54 JUMP JUMPDEST JUMPDEST PUSH0 PUSH2 0xFB1 DUP5 DUP3 DUP6 ADD PUSH2 0xF7B JUMP JUMPDEST SWAP2 POP POP SWAP3 SWAP2 POP POP JUMP JUMPDEST PUSH2 0xFC3 DUP2 PUSH2 0xF5C JUMP JUMPDEST DUP3 MSTORE POP POP JUMP JUMPDEST PUSH0 PUSH1 0x20 DUP3 ADD SWAP1 POP PUSH2 0xFDC PUSH0 DUP4 ADD DUP5 PUSH2 0xFBA JUMP JUMPDEST SWAP3 SWAP2 POP POP JUMP JUMPDEST PUSH0 DUP2 MLOAD SWAP1 POP SWAP2 SWAP1 POP JUMP JUMPDEST PUSH0 DUP3 DUP3 MSTORE PUSH1 0x20 DUP3 ADD SWAP1 POP SWAP3 SWAP2 POP POP JUMP JUMPDEST DUP3 DUP2 DUP4 MCOPY PUSH0 DUP4 DUP4 ADD MSTORE POP POP POP JUMP JUMPDEST PUSH0 PUSH1 0x1F NOT PUSH1 0x1F DUP4 ADD AND SWAP1 POP SWAP2 SWAP1 POP JUMP JUMPDEST PUSH0 PUSH2 0x1024 DUP3 PUSH2 0xFE2 JUMP JUMPDEST PUSH2 0x102E DUP2 DUP6 PUSH2 0xFEC JUMP JUMPDEST SWAP4 POP PUSH2 0x103E DUP2 DUP6 PUSH1 0x20 DUP7 ADD PUSH2 0xFFC JUMP JUMPDEST PUSH2 0x1047 DUP2 PUSH2 0x100A JUMP JUMPDEST DUP5 ADD SWAP2 POP POP SWAP3 SWAP2 POP POP JUMP JUMPDEST PUSH0 DUP2 ISZERO ISZERO SWAP1 POP SWAP2 SWAP1 POP JUMP JUMPDEST PUSH2 0x1066 DUP2 PUSH2 0x1052 JUMP JUMPDEST DUP3 MSTORE POP POP JUMP JUMPDEST PUSH0 PUSH1 0xA0 DUP3 ADD SWAP1 POP DUP2 DUP2 SUB PUSH0 DUP4 ADD MSTORE PUSH2 0x1084 DUP2 DUP9 PUSH2 0x101A JUMP JUMPDEST SWAP1 POP PUSH2 0x1093 PUSH1 0x20 DUP4 ADD DUP8 PUSH2 0xFBA JUMP JUMPDEST PUSH2 0x10A0 PUSH1 0x40 DUP4 ADD DUP7 PUSH2 0x105D JUMP JUMPDEST PUSH2 0x10AD PUSH1 0x60 DUP4 ADD DUP6 PUSH2 0xFBA JUMP JUMPDEST PUSH2 0x10BA PUSH1 0x80 DUP4 ADD DUP5 PUSH2 0xFBA JUMP JUMPDEST SWAP7 SWAP6 POP POP POP POP POP POP JUMP JUMPDEST PUSH0 DUP1 PUSH1 0x40 DUP4 DUP6 SUB SLT ISZERO PUSH2 0x10DA JUMPI PUSH2 0x10D9 PUSH2 0xF54 JUMP JUMPDEST JUMPDEST PUSH0 PUSH2 0x10E7 DUP6 DUP3 DUP7 ADD PUSH2 0xF7B JUMP JUMPDEST SWAP3 POP POP PUSH1 0x20 PUSH2 0x10F8 DUP6 DUP3 DUP7 ADD PUSH2 0xF7B JUMP JUMPDEST SWAP2 POP POP SWAP3 POP SWAP3 SWAP1 POP JUMP JUMPDEST PUSH0 DUP2 MLOAD SWAP1 POP SWAP2 SWAP1 POP JUMP JUMPDEST PUSH0 DUP3 DUP3 MSTORE PUSH1 0x20 DUP3 ADD SWAP1 POP SWAP3 SWAP2 POP POP JUMP JUMPDEST PUSH0 DUP2 SWAP1 POP PUSH1 0x20 DUP3 ADD SWAP1 POP SWAP2 SWAP1 POP JUMP JUMPDEST PUSH2 0x1134 DUP2 PUSH2 0xF5C JUMP JUMPDEST DUP3 MSTORE POP POP JUMP JUMPDEST PUSH0 PUSH2 0x1145 DUP4 DUP4 PUSH2 0x112B JUMP JUMPDEST PUSH1 0x20 DUP4 ADD SWAP1 POP SWAP3 SWAP2 POP POP JUMP JUMPDEST PUSH0 PUSH1 0x20 DUP3 ADD SWAP1 POP SWAP2 SWAP1 POP JUMP JUMPDEST PUSH0 PUSH2 0x1167 DUP3 PUSH2 0x1102 JUMP JUMPDEST PUSH2 0x1171 DUP2 DUP6 PUSH2 0x110C JUMP JUMPDEST SWAP4 POP PUSH2 0x117C DUP4 PUSH2 0x111C JUMP JUMPDEST DUP1 PUSH0 JUMPDEST DUP4 DUP2 LT ISZERO PUSH2 0x11AC JUMPI DUP2 MLOAD PUSH2 0x1193 DUP9 DUP3 PUSH2 0x113A JUMP JUMPDEST SWAP8 POP PUSH2 0x119E DUP4 PUSH2 0x1151 JUMP JUMPDEST SWAP3 POP POP PUSH1 0x1 DUP2 ADD SWAP1 POP PUSH2 0x117F JUMP JUMPDEST POP DUP6 SWAP4 POP POP POP POP SWAP3 SWAP2 POP POP JUMP JUMPDEST PUSH0 PUSH1 0x20 DUP3 ADD SWAP1 POP DUP2 DUP2 SUB PUSH0 DUP4 ADD MSTORE PUSH2 0x11D1 DUP2 DUP5 PUSH2 0x115D JUMP JUMPDEST SWAP1 POP SWAP3 SWAP2 POP POP JUMP JUMPDEST PUSH0 PUSH20 0xFFFFFFFFFFFFFFFFFFFFFFFFFFFFFFFFFFFFFFFF DUP3 AND SWAP1 POP SWAP2 SWAP1 POP JUMP JUMPDEST PUSH0 PUSH2 0x1202 DUP3 PUSH2 0x11D9 JUMP JUMPDEST SWAP1 POP SWAP2 SWAP1 POP JUMP JUMPDEST PUSH2 0x1212 DUP2 PUSH2 0x11F8 JUMP JUMPDEST DUP3 MSTORE POP POP JUMP JUMPDEST PUSH0 PUSH1 0x20 DUP3 ADD SWAP1 POP PUSH2 0x122B PUSH0 DUP4 ADD DUP5 PUSH2 0x1209 JUMP JUMPDEST SWAP3 SWAP2 POP POP JUMP JUMPDEST PUSH0 DUP1 REVERT JUMPDEST PUSH0 DUP1 REVERT JUMPDEST PUSH32 0x4E487B7100000000000000000000000000000000000000000000000000000000 PUSH0 MSTORE PUSH1 0x41 PUSH1 0x4 MSTORE PUSH1 0x24 PUSH0 REVERT JUMPDEST PUSH2 0x126F DUP3 PUSH2 0x100A JUMP JUMPDEST DUP2 ADD DUP2 DUP2 LT PUSH8 0xFFFFFFFFFFFFFFFF DUP3 GT OR ISZERO PUSH2 0x128E JUMPI PUSH2 0x128D PUSH2 0x1239 JUMP JUMPDEST JUMPDEST DUP1 PUSH1 0x40 MSTORE POP POP POP JUMP JUMPDEST PUSH0 PUSH2 0x12A0 PUSH2 0xF4B JUMP JUMPDEST SWAP1 POP PUSH2 0x12AC DUP3 DUP3 PUSH2 0x1266 JUMP JUMPDEST SWAP2 SWAP1 POP JUMP JUMPDEST PUSH0 PUSH8 0xFFFFFFFFFFFFFFFF DUP3 GT ISZERO PUSH2 0x12CB JUMPI PUSH2 0x12CA PUSH2 0x1239 JUMP JUMPDEST JUMPDEST PUSH2 0x12D4 DUP3 PUSH2 0x100A JUMP JUMPDEST SWAP1 POP PUSH1 0x20 DUP2 ADD SWAP1 POP SWAP2 SWAP1 POP JUMP JUMPDEST DUP3 DUP2 DUP4 CALLDATACOPY PUSH0 DUP4 DUP4 ADD MSTORE POP POP POP JUMP JUMPDEST PUSH0 PUSH2 0x1301 PUSH2 0x12FC DUP5 PUSH2 0x12B1 JUMP JUMPDEST PUSH2 0x1297 JUMP JUMPDEST SWAP1 POP DUP3 DUP2 MSTORE PUSH1 0x20 DUP2 ADD DUP5 DUP5 DUP5 ADD GT ISZERO PUSH2 0x131D JUMPI PUSH2 0x131C PUSH2 0x1235 JUMP JUMPDEST JUMPDEST PUSH2 0x1328 DUP5 DUP3 DUP6 PUSH2 0x12E1 JUMP JUMPDEST POP SWAP4 SWAP3 POP POP POP JUMP JUMPDEST PUSH0 DUP3 PUSH1 0x1F DUP4 ADD SLT PUSH2 0x1344 JUMPI PUSH2 0x1343 PUSH2 0x1231 JUMP JUMPDEST JUMPDEST DUP2 CALLDATALOAD PUSH2 0x1354 DUP5 DUP3 PUSH1 0x20 DUP7 ADD PUSH2 0x12EF JUMP JUMPDEST SWAP2 POP POP SWAP3 SWAP2 POP POP JUMP JUMPDEST PUSH0 DUP1 PUSH1 0x40 DUP4 DUP6 SUB SLT ISZERO PUSH2 0x1373 JUMPI PUSH2 0x1372 PUSH2 0xF54 JUMP JUMPDEST JUMPDEST PUSH0 DUP4 ADD CALLDATALOAD PUSH8 0xFFFFFFFFFFFFFFFF DUP2 GT ISZERO PUSH2 0x1390 JUMPI PUSH2 0x138F PUSH2 0xF58 JUMP JUMPDEST JUMPDEST PUSH2 0x139C DUP6 DUP3 DUP7 ADD PUSH2 0x1330 JUMP JUMPDEST SWAP3 POP POP PUSH1 0x20 PUSH2 0x13AD DUP6 DUP3 DUP7 ADD PUSH2 0xF7B JUMP JUMPDEST SWAP2 POP POP SWAP3 POP SWAP3 SWAP1 POP JUMP JUMPDEST PUSH2 0x13C0 DUP2 PUSH2 0x11F8 JUMP JUMPDEST DUP2 EQ PUSH2 0x13CA JUMPI PUSH0 DUP1 REVERT JUMPDEST POP JUMP JUMPDEST PUSH0 DUP2 CALLDATALOAD SWAP1 POP PUSH2 0x13DB DUP2 PUSH2 0x13B7 JUMP JUMPDEST SWAP3 SWAP2 POP POP JUMP JUMPDEST PUSH0 DUP1 PUSH1 0x40 DUP4 DUP6 SUB SLT ISZERO PUSH2 0x13F7 JUMPI PUSH2 0x13F6 PUSH2 0xF54 JUMP JUMPDEST JUMPDEST PUSH0 PUSH2 0x1404 DUP6 DUP3 DUP7 ADD PUSH2 0xF7B JUMP JUMPDEST SWAP3 POP POP PUSH1 0x20 PUSH2 0x1415 DUP6 DUP3 DUP7 ADD PUSH2 0x13CD JUMP JUMPDEST SWAP2 POP POP SWAP3 POP SWAP3 SWAP1 POP JUMP JUMPDEST PUSH0 PUSH1 0x60 DUP3 ADD SWAP1 POP PUSH2 0x1432 PUSH0 DUP4 ADD DUP7 PUSH2 0xFBA JUMP JUMPDEST PUSH2 0x143F PUSH1 0x20 DUP4 ADD DUP6 PUSH2 0xFBA JUMP JUMPDEST PUSH2 0x144C PUSH1 0x40 DUP4 ADD DUP5 PUSH2 0x105D JUMP JUMPDEST SWAP5 SWAP4 POP POP POP POP JUMP JUMPDEST PUSH32 0x4E487B7100000000000000000000000000000000000000000000000000000000 PUSH0 MSTORE PUSH1 0x22 PUSH1 0x4 MSTORE PUSH1 0x24 PUSH0 REVERT JUMPDEST PUSH0 PUSH1 0x2 DUP3 DIV SWAP1 POP PUSH1 0x1 DUP3 AND DUP1 PUSH2 0x1498 JUMPI PUSH1 0x7F DUP3 AND SWAP2 POP JUMPDEST PUSH1 0x20 DUP3 LT DUP2 SUB PUSH2 0x14AB JUMPI PUSH2 0x14AA PUSH2 0x1454 JUMP JUMPDEST JUMPDEST POP SWAP2 SWAP1 POP JUMP JUMPDEST PUSH32 0x4E6F74206F776E65720000000000000000000000000000000000000000000000 PUSH0 DUP3 ADD MSTORE POP JUMP JUMPDEST PUSH0 PUSH2 0x14E5 PUSH1 0x9 DUP4 PUSH2 0xFEC JUMP JUMPDEST SWAP2 POP PUSH2 0x14F0 DUP3 PUSH2 0x14B1 JUMP JUMPDEST PUSH1 0x20 DUP3 ADD SWAP1 POP SWAP2 SWAP1 POP JUMP JUMPDEST PUSH0 PUSH1 0x20 DUP3 ADD SWAP1 POP DUP2 DUP2 SUB PUSH0 DUP4 ADD MSTORE PUSH2 0x1512 DUP2 PUSH2 0x14D9 JUMP JUMPDEST SWAP1 POP SWAP2 SWAP1 POP JUMP JUMPDEST PUSH32 0x496E76616C6964206576656E7400000000000000000000000000000000000000 PUSH0 DUP3 ADD MSTORE POP JUMP JUMPDEST PUSH0 PUSH2 0x154D PUSH1 0xD DUP4 PUSH2 0xFEC JUMP JUMPDEST SWAP2 POP PUSH2 0x1558 DUP3 PUSH2 0x1519 JUMP JUMPDEST PUSH1 0x20 DUP3 ADD SWAP1 POP SWAP2 SWAP1 POP JUMP JUMPDEST PUSH0 PUSH1 0x20 DUP3 ADD SWAP1 POP DUP2 DUP2 SUB PUSH0 DUP4 ADD MSTORE PUSH2 0x157A DUP2 PUSH2 0x1541 JUMP JUMPDEST SWAP1 POP SWAP2 SWAP1 POP JUMP JUMPDEST PUSH32 0x416C726561647920636C6F736564000000000000000000000000000000000000 PUSH0 DUP3 ADD MSTORE POP JUMP JUMPDEST PUSH0 PUSH2 0x15B5 PUSH1 0xE DUP4 PUSH2 0xFEC JUMP JUMPDEST SWAP2 POP PUSH2 0x15C0 DUP3 PUSH2 0x1581 JUMP JUMPDEST PUSH1 0x20 DUP3 ADD SWAP1 POP SWAP2 SWAP1 POP JUMP JUMPDEST PUSH0 PUSH1 0x20 DUP3 ADD SWAP1 POP DUP2 DUP2 SUB PUSH0 DUP4 ADD MSTORE PUSH2 0x15E2 DUP2 PUSH2 0x15A9 JUMP JUMPDEST SWAP1 POP SWAP2 SWAP1 POP JUMP JUMPDEST PUSH32 0x546F6F206561726C790000000000000000000000000000000000000000000000 PUSH0 DUP3 ADD MSTORE POP JUMP JUMPDEST PUSH0 PUSH2 0x161D PUSH1 0x9 DUP4 PUSH2 0xFEC JUMP JUMPDEST SWAP2 POP PUSH2 0x1628 DUP3 PUSH2 0x15E9 JUMP JUMPDEST PUSH1 0x20 DUP3 ADD SWAP1 POP SWAP2 SWAP1 POP JUMP JUMPDEST PUSH0 PUSH1 0x20 DUP3 ADD SWAP1 POP DUP2 DUP2 SUB PUSH0 DUP4 ADD MSTORE PUSH2 0x164A DUP2 PUSH2 0x1611 JUMP JUMPDEST SWAP1 POP SWAP2 SWAP1 POP JUMP JUMPDEST PUSH32 0x4576656E74207374617274656400000000000000000000000000000000000000 PUSH0 DUP3 ADD MSTORE POP JUMP JUMPDEST PUSH0 PUSH2 0x1685 PUSH1 0xD DUP4 PUSH2 0xFEC JUMP JUMPDEST SWAP2 POP PUSH2 0x1690 DUP3 PUSH2 0x1651 JUMP JUMPDEST PUSH1 0x20 DUP3 ADD SWAP1 POP SWAP2 SWAP1 POP JUMP JUMPDEST PUSH0 PUSH1 0x20 DUP3 ADD SWAP1 POP DUP2 DUP2 SUB PUSH0 DUP4 ADD MSTORE PUSH2 0x16B2 DUP2 PUSH2 0x1679 JUMP JUMPDEST SWAP1 POP SWAP2 SWAP1 POP JUMP JUMPDEST PUSH32 0x426574206D757374206265203E20300000000000000000000000000000000000 PUSH0 DUP3 ADD MSTORE POP JUMP JUMPDEST PUSH0 PUSH2 0x16ED PUSH1 0xF DUP4 PUSH2 0xFEC JUMP JUMPDEST SWAP2 POP PUSH2 0x16F8 DUP3 PUSH2 0x16B9 JUMP JUMPDEST PUSH1 0x20 DUP3 ADD SWAP1 POP SWAP2 SWAP1 POP JUMP JUMPDEST PUSH0 PUSH1 0x20 DUP3 ADD SWAP1 POP DUP2 DUP2 SUB PUSH0 DUP4 ADD MSTORE PUSH2 0x171A DUP2 PUSH2 0x16E1 JUMP JUMPDEST SWAP1 POP SWAP2 SWAP1 POP JUMP JUMPDEST PUSH32 0x416C726561647920626574000000000000000000000000000000000000000000 PUSH0 DUP3 ADD MSTORE POP JUMP JUMPDEST PUSH0 PUSH2 0x1755 PUSH1 0xB DUP4 PUSH2 0xFEC JUMP JUMPDEST SWAP2 POP PUSH2 0x1760 DUP3 PUSH2 0x1721 JUMP JUMPDEST PUSH1 0x20 DUP3 ADD SWAP1 POP SWAP2 SWAP1 POP JUMP JUMPDEST PUSH0 PUSH1 0x20 DUP3 ADD SWAP1 POP DUP2 DUP2 SUB PUSH0 DUP4 ADD MSTORE PUSH2 0x1782 DUP2 PUSH2 0x1749 JUMP JUMPDEST SWAP1 POP SWAP2 SWAP1 POP JUMP JUMPDEST PUSH32 0x4E487B7100000000000000000000000000000000000000000000000000000000 PUSH0 MSTORE PUSH1 0x11 PUSH1 0x4 MSTORE PUSH1 0x24 PUSH0 REVERT JUMPDEST PUSH0 PUSH2 0x17C0 DUP3 PUSH2 0xF5C JUMP JUMPDEST SWAP2 POP PUSH2 0x17CB DUP4 PUSH2 0xF5C JUMP JUMPDEST SWAP3 POP DUP3 DUP3 ADD SWAP1 POP DUP1 DUP3 GT ISZERO PUSH2 0x17E3 JUMPI PUSH2 0x17E2 PUSH2 0x1789 JUMP JUMPDEST JUMPDEST SWAP3 SWAP2 POP POP JUMP JUMPDEST PUSH0 PUSH1 0x40 DUP3 ADD SWAP1 POP PUSH2 0x17FC PUSH0 DUP4 ADD DUP6 PUSH2 0xFBA JUMP JUMPDEST PUSH2 0x1809 PUSH1 0x20 DUP4 ADD DUP5 PUSH2 0xFBA JUMP JUMPDEST SWAP4 SWAP3 POP POP POP JUMP JUMPDEST PUSH32 0x54696D65206D75737420626520696E2066757475726500000000000000000000 PUSH0 DUP3 ADD MSTORE POP JUMP JUMPDEST PUSH0 PUSH2 0x1844 PUSH1 0x16 DUP4 PUSH2 0xFEC JUMP JUMPDEST SWAP2 POP PUSH2 0x184F DUP3 PUSH2 0x1810 JUMP JUMPDEST PUSH1 0x20 DUP3 ADD SWAP1 POP SWAP2 SWAP1 POP JUMP JUMPDEST PUSH0 PUSH1 0x20 DUP3 ADD SWAP1 POP DUP2 DUP2 SUB PUSH0 DUP4 ADD MSTORE PUSH2 0x1871 DUP2 PUSH2 0x1838 JUMP JUMPDEST SWAP1 POP SWAP2 SWAP1 POP JUMP JUMPDEST PUSH0 DUP2 SWAP1 POP DUP2 PUSH0 MSTORE PUSH1 0x20 PUSH0 KECCAK256 SWAP1 POP SWAP2 SWAP1 POP JUMP JUMPDEST PUSH0 PUSH1 0x20 PUSH1 0x1F DUP4 ADD DIV SWAP1 POP SWAP2 SWAP1 POP JUMP JUMPDEST PUSH0 DUP3 DUP3 SHL SWAP1 POP SWAP3 SWAP2 POP POP JUMP JUMPDEST PUSH0 PUSH1 0x8 DUP4 MUL PUSH2 0x18D4 PUSH32 0xFFFFFFFFFFFFFFFFFFFFFFFFFFFFFFFFFFFFFFFFFFFFFFFFFFFFFFFFFFFFFFFF DUP3 PUSH2 0x1899 JUMP JUMPDEST PUSH2 0x18DE DUP7 DUP4 PUSH2 0x1899 JUMP JUMPDEST SWAP6 POP DUP1 NOT DUP5 AND SWAP4 POP DUP1 DUP7 AND DUP5 OR SWAP3 POP POP POP SWAP4 SWAP3 POP POP POP JUMP JUMPDEST PUSH0 DUP2 SWAP1 POP SWAP2 SWAP1 POP JUMP JUMPDEST PUSH0 PUSH2 0x1919 PUSH2 0x1914 PUSH2 0x190F DUP5 PUSH2 0xF5C JUMP JUMPDEST PUSH2 0x18F6 JUMP JUMPDEST PUSH2 0xF5C JUMP JUMPDEST SWAP1 POP SWAP2 SWAP1 POP JUMP JUMPDEST PUSH0 DUP2 SWAP1 POP SWAP2 SWAP1 POP JUMP JUMPDEST PUSH2 0x1932 DUP4 PUSH2 0x18FF JUMP JUMPDEST PUSH2 0x1946 PUSH2 0x193E DUP3 PUSH2 0x1920 JUMP JUMPDEST DUP5 DUP5 SLOAD PUSH2 0x18A5 JUMP JUMPDEST DUP3 SSTORE POP POP POP POP JUMP JUMPDEST PUSH0 SWAP1 JUMP JUMPDEST PUSH2 0x195A PUSH2 0x194E JUMP JUMPDEST PUSH2 0x1965 DUP2 DUP5 DUP5 PUSH2 0x1929 JUMP JUMPDEST POP POP POP JUMP JUMPDEST JUMPDEST DUP2 DUP2 LT ISZERO PUSH2 0x1988 JUMPI PUSH2 0x197D PUSH0 DUP3 PUSH2 0x1952 JUMP JUMPDEST PUSH1 0x1 DUP2 ADD SWAP1 POP PUSH2 0x196B JUMP JUMPDEST POP POP JUMP JUMPDEST PUSH1 0x1F DUP3 GT ISZERO PUSH2 0x19CD JUMPI PUSH2 0x199E DUP2 PUSH2 0x1878 JUMP JUMPDEST PUSH2 0x19A7 DUP5 PUSH2 0x188A JUMP JUMPDEST DUP2 ADD PUSH1 0x20 DUP6 LT ISZERO PUSH2 0x19B6 JUMPI DUP2 SWAP1 POP JUMPDEST PUSH2 0x19CA PUSH2 0x19C2 DUP6 PUSH2 0x188A JUMP JUMPDEST DUP4 ADD DUP3 PUSH2 0x196A JUMP JUMPDEST POP POP JUMPDEST POP POP POP JUMP JUMPDEST PUSH0 DUP3 DUP3 SHR SWAP1 POP SWAP3 SWAP2 POP POP JUMP JUMPDEST PUSH0 PUSH2 0x19ED PUSH0 NOT DUP5 PUSH1 0x8 MUL PUSH2 0x19D2 JUMP JUMPDEST NOT DUP1 DUP4 AND SWAP2 POP POP SWAP3 SWAP2 POP POP JUMP JUMPDEST PUSH0 PUSH2 0x1A05 DUP4 DUP4 PUSH2 0x19DE JUMP JUMPDEST SWAP2 POP DUP3 PUSH1 0x2 MUL DUP3 OR SWAP1 POP SWAP3 SWAP2 POP POP JUMP JUMPDEST PUSH2 0x1A1E DUP3 PUSH2 0xFE2 JUMP JUMPDEST PUSH8 0xFFFFFFFFFFFFFFFF DUP2 GT ISZERO PUSH2 0x1A37 JUMPI PUSH2 0x1A36 PUSH2 0x1239 JUMP JUMPDEST JUMPDEST PUSH2 0x1A41 DUP3 SLOAD PUSH2 0x1481 JUMP JUMPDEST PUSH2 0x1A4C DUP3 DUP3 DUP6 PUSH2 0x198C JUMP JUMPDEST PUSH0 PUSH1 0x20 SWAP1 POP PUSH1 0x1F DUP4 GT PUSH1 0x1 DUP2 EQ PUSH2 0x1A7D JUMPI PUSH0 DUP5 ISZERO PUSH2 0x1A6B JUMPI DUP3 DUP8 ADD MLOAD SWAP1 POP JUMPDEST PUSH2 0x1A75 DUP6 DUP3 PUSH2 0x19FA JUMP JUMPDEST DUP7 SSTORE POP PUSH2 0x1ADC JUMP JUMPDEST PUSH1 0x1F NOT DUP5 AND PUSH2 0x1A8B DUP7 PUSH2 0x1878 JUMP JUMPDEST PUSH0 JUMPDEST DUP3 DUP2 LT ISZERO PUSH2 0x1AB2 JUMPI DUP5 DUP10 ADD MLOAD DUP3 SSTORE PUSH1 0x1 DUP3 ADD SWAP2 POP PUSH1 0x20 DUP6 ADD SWAP5 POP PUSH1 0x20 DUP2 ADD SWAP1 POP PUSH2 0x1A8D JUMP JUMPDEST DUP7 DUP4 LT ISZERO PUSH2 0x1ACF JUMPI DUP5 DUP10 ADD MLOAD PUSH2 0x1ACB PUSH1 0x1F DUP10 AND DUP3 PUSH2 0x19DE JUMP JUMPDEST DUP4 SSTORE POP JUMPDEST PUSH1 0x1 PUSH1 0x2 DUP9 MUL ADD DUP9 SSTORE POP POP POP JUMPDEST POP POP POP POP POP POP JUMP JUMPDEST PUSH0 PUSH1 0x40 DUP3 ADD SWAP1 POP DUP2 DUP2 SUB PUSH0 DUP4 ADD MSTORE PUSH2 0x1AFC DUP2 DUP6 PUSH2 0x101A JUMP JUMPDEST SWAP1 POP PUSH2 0x1B0B PUSH1 0x20 DUP4 ADD DUP5 PUSH2 0xFBA JUMP JUMPDEST SWAP4 SWAP3 POP POP POP JUMP JUMPDEST PUSH0 PUSH2 0x1B1C DUP3 PUSH2 0xF5C JUMP JUMPDEST SWAP2 POP PUSH32 0xFFFFFFFFFFFFFFFFFFFFFFFFFFFFFFFFFFFFFFFFFFFFFFFFFFFFFFFFFFFFFFFF DUP3 SUB PUSH2 0x1B4E JUMPI PUSH2 0x1B4D PUSH2 0x1789 JUMP JUMPDEST JUMPDEST PUSH1 0x1 DUP3 ADD SWAP1 POP SWAP2 SWAP1 POP JUMP JUMPDEST PUSH32 0x4576656E74206E6F7420636C6F73656400000000000000000000000000000000 PUSH0 DUP3 ADD MSTORE POP JUMP JUMPDEST PUSH0 PUSH2 0x1B8D PUSH1 0x10 DUP4 PUSH2 0xFEC JUMP JUMPDEST SWAP2 POP PUSH2 0x1B98 DUP3 PUSH2 0x1B59 JUMP JUMPDEST PUSH1 0x20 DUP3 ADD SWAP1 POP SWAP2 SWAP1 POP JUMP JUMPDEST PUSH0 PUSH1 0x20 DUP3 ADD SWAP1 POP DUP2 DUP2 SUB PUSH0 DUP4 ADD MSTORE PUSH2 0x1BBA DUP2 PUSH2 0x1B81 JUMP JUMPDEST SWAP1 POP SWAP2 SWAP1 POP JUMP JUMPDEST PUSH32 0x416C726561647920636C61696D65640000000000000000000000000000000000 PUSH0 DUP3 ADD MSTORE POP JUMP JUMPDEST PUSH0 PUSH2 0x1BF5 PUSH1 0xF DUP4 PUSH2 0xFEC JUMP JUMPDEST SWAP2 POP PUSH2 0x1C00 DUP3 PUSH2 0x1BC1 JUMP JUMPDEST PUSH1 0x20 DUP3 ADD SWAP1 POP SWAP2 SWAP1 POP JUMP JUMPDEST PUSH0 PUSH1 0x20 DUP3 ADD SWAP1 POP DUP2 DUP2 SUB PUSH0 DUP4 ADD MSTORE PUSH2 0x1C22 DUP2 PUSH2 0x1BE9 JUMP JUMPDEST SWAP1 POP SWAP2 SWAP1 POP JUMP JUMPDEST PUSH32 0x4E6F7420612077696E6E65720000000000000000000000000000000000000000 PUSH0 DUP3 ADD MSTORE POP JUMP JUMPDEST PUSH0 PUSH2 0x1C5D PUSH1 0xC DUP4 PUSH2 0xFEC JUMP JUMPDEST SWAP2 POP PUSH2 0x1C68 DUP3 PUSH2 0x1C29 JUMP JUMPDEST PUSH1 0x20 DUP3 ADD SWAP1 POP SWAP2 SWAP1 POP JUMP JUMPDEST PUSH0 PUSH1 0x20 DUP3 ADD SWAP1 POP DUP2 DUP2 SUB PUSH0 DUP4 ADD MSTORE PUSH2 0x1C8A DUP2 PUSH2 0x1C51 JUMP JUMPDEST SWAP1 POP SWAP2 SWAP1 POP JUMP JUMPDEST PUSH0 PUSH2 0x1C9B DUP3 PUSH2 0xF5C JUMP JUMPDEST SWAP2 POP PUSH2 0x1CA6 DUP4 PUSH2 0xF5C JUMP JUMPDEST SWAP3 POP DUP3 DUP3 SUB SWAP1 POP DUP2 DUP2 GT ISZERO PUSH2 0x1CBE JUMPI PUSH2 0x1CBD PUSH2 0x1789 JUMP JUMPDEST JUMPDEST SWAP3 SWAP2 POP POP JUMP JUMPDEST PUSH0 PUSH2 0x1CCE DUP3 PUSH2 0xF5C JUMP JUMPDEST SWAP2 POP PUSH2 0x1CD9 DUP4 PUSH2 0xF5C JUMP JUMPDEST SWAP3 POP DUP3 DUP3 MUL PUSH2 0x1CE7 DUP2 PUSH2 0xF5C JUMP JUMPDEST SWAP2 POP DUP3 DUP3 DIV DUP5 EQ DUP4 ISZERO OR PUSH2 0x1CFE JUMPI PUSH2 0x1CFD PUSH2 0x1789 JUMP JUMPDEST JUMPDEST POP SWAP3 SWAP2 POP POP JUMP JUMPDEST PUSH32 0x4E487B7100000000000000000000000000000000000000000000000000000000 PUSH0 MSTORE PUSH1 0x12 PUSH1 0x4 MSTORE PUSH1 0x24 PUSH0 REVERT JUMPDEST PUSH0 PUSH2 0x1D3C DUP3 PUSH2 0xF5C JUMP JUMPDEST SWAP2 POP PUSH2 0x1D47 DUP4 PUSH2 0xF5C JUMP JUMPDEST SWAP3 POP DUP3 PUSH2 0x1D57 JUMPI PUSH2 0x1D56 PUSH2 0x1D05 JUMP JUMPDEST JUMPDEST DUP3 DUP3 DIV SWAP1 POP SWAP3 SWAP2 POP POP JUMP INVALID LOG2 PUSH5 0x6970667358 0x22 SLT KECCAK256 PUSH11 0x1B1140B588CF2A79512BCF 0xB9 SHR 0xD4 0xD9 DUP8 SWAP2 0xEF PUSH31 0x7C0C2F8244CE00094281A5B864736F6C634300081A00330000000000000000 "
		},
		"gasEstimates": {
			"creation": {
				"codeDepositCost": "1515200",
				"executionCost": "52956",
				"totalCost": "1568156"
			},
			"external": {
				"claimReward(uint256)": "infinite",
				"closeEvent(uint256,uint256)": "infinite",
				"createEvent(string,uint256)": "infinite",
				"eventCount()": "2448",
				"eventIds(uint256)": "infinite",
				"events(uint256)": "infinite",
				"getAllEventIds()": "infinite",
				"getBetAmount(uint256,uint256)": "infinite",
				"getEventPool(uint256)": "infinite",
				"getUserBet(uint256,address)": "infinite",
				"owner()": "2572",
				"placeBet(uint256,uint256)": "infinite",
				"platformFeePercent()": "2470",
				"withdrawFees()": "infinite"
			}
		},
		"methodIdentifiers": {
			"claimReward(uint256)": "ae169a50",
			"closeEvent(uint256,uint256)": "1d40a813",
			"createEvent(string,uint256)": "9a4d4385",
			"eventCount()": "71be2e4a",
			"eventIds(uint256)": "998f6ac0",
			"events(uint256)": "0b791430",
			"getAllEventIds()": "682e54cd",
			"getBetAmount(uint256,uint256)": "5b704749",
			"getEventPool(uint256)": "0b4411fb",
			"getUserBet(uint256,address)": "c03fb87c",
			"owner()": "8da5cb5b",
			"placeBet(uint256,uint256)": "4afe62b5",
			"platformFeePercent()": "8c639a85",
			"withdrawFees()": "476343ee"
		}
	},
	"abi": [
		{
			"inputs": [],
			"stateMutability": "nonpayable",
			"type": "constructor"
		},
		{
			"anonymous": false,
			"inputs": [
				{
					"indexed": true,
					"internalType": "uint256",
					"name": "eventId",
					"type": "uint256"
				},
				{
					"indexed": true,
					"internalType": "address",
					"name": "user",
					"type": "address"
				},
				{
					"indexed": false,
					"internalType": "uint256",
					"name": "option",
					"type": "uint256"
				},
				{
					"indexed": false,
					"internalType": "uint256",
					"name": "amount",
					"type": "uint256"
				}
			],
			"name": "BetPlaced",
			"type": "event"
		},
		{
			"anonymous": false,
			"inputs": [
				{
					"indexed": true,
					"internalType": "uint256",
					"name": "eventId",
					"type": "uint256"
				},
				{
					"indexed": false,
					"internalType": "uint256",
					"name": "winningOption",
					"type": "uint256"
				}
			],
			"name": "EventClosed",
			"type": "event"
		},
		{
			"anonymous": false,
			"inputs": [
				{
					"indexed": true,
					"internalType": "uint256",
					"name": "eventId",
					"type": "uint256"
				},
				{
					"indexed": false,
					"internalType": "string",
					"name": "name",
					"type": "string"
				},
				{
					"indexed": false,
					"internalType": "uint256",
					"name": "eventTime",
					"type": "uint256"
				}
			],
			"name": "EventCreated",
			"type": "event"
		},
		{
			"anonymous": false,
			"inputs": [
				{
					"indexed": true,
					"internalType": "uint256",
					"name": "eventId",
					"type": "uint256"
				},
				{
					"indexed": true,
					"internalType": "address",
					"name": "user",
					"type": "address"
				},
				{
					"indexed": false,
					"internalType": "uint256",
					"name": "reward",
					"type": "uint256"
				}
			],
			"name": "RewardClaimed",
			"type": "event"
		},
		{
			"inputs": [
				{
					"internalType": "uint256",
					"name": "eventId",
					"type": "uint256"
				}
			],
			"name": "claimReward",
			"outputs": [],
			"stateMutability": "nonpayable",
			"type": "function"
		},
		{
			"inputs": [
				{
					"internalType": "uint256",
					"name": "eventId",
					"type": "uint256"
				},
				{
					"internalType": "uint256",
					"name": "winningOption",
					"type": "uint256"
				}
			],
			"name": "closeEvent",
			"outputs": [],
			"stateMutability": "nonpayable",
			"type": "function"
		},
		{
			"inputs": [
				{
					"internalType": "string",
					"name": "name",
					"type": "string"
				},
				{
					"internalType": "uint256",
					"name": "eventTime",
					"type": "uint256"
				}
			],
			"name": "createEvent",
			"outputs": [],
			"stateMutability": "nonpayable",
			"type": "function"
		},
		{
			"inputs": [],
			"name": "eventCount",
			"outputs": [
				{
					"internalType": "uint256",
					"name": "",
					"type": "uint256"
				}
			],
			"stateMutability": "view",
			"type": "function"
		},
		{
			"inputs": [
				{
					"internalType": "uint256",
					"name": "",
					"type": "uint256"
				}
			],
			"name": "eventIds",
			"outputs": [
				{
					"internalType": "uint256",
					"name": "",
					"type": "uint256"
				}
			],
			"stateMutability": "view",
			"type": "function"
		},
		{
			"inputs": [
				{
					"internalType": "uint256",
					"name": "",
					"type": "uint256"
				}
			],
			"name": "events",
			"outputs": [
				{
					"internalType": "string",
					"name": "name",
					"type": "string"
				},
				{
					"internalType": "uint256",
					"name": "eventTime",
					"type": "uint256"
				},
				{
					"internalType": "bool",
					"name": "isClosed",
					"type": "bool"
				},
				{
					"internalType": "uint256",
					"name": "winningOption",
					"type": "uint256"
				},
				{
					"internalType": "uint256",
					"name": "totalPool",
					"type": "uint256"
				}
			],
			"stateMutability": "view",
			"type": "function"
		},
		{
			"inputs": [],
			"name": "getAllEventIds",
			"outputs": [
				{
					"internalType": "uint256[]",
					"name": "",
					"type": "uint256[]"
				}
			],
			"stateMutability": "view",
			"type": "function"
		},
		{
			"inputs": [
				{
					"internalType": "uint256",
					"name": "eventId",
					"type": "uint256"
				},
				{
					"internalType": "uint256",
					"name": "option",
					"type": "uint256"
				}
			],
			"name": "getBetAmount",
			"outputs": [
				{
					"internalType": "uint256",
					"name": "",
					"type": "uint256"
				}
			],
			"stateMutability": "view",
			"type": "function"
		},
		{
			"inputs": [
				{
					"internalType": "uint256",
					"name": "eventId",
					"type": "uint256"
				}
			],
			"name": "getEventPool",
			"outputs": [
				{
					"internalType": "uint256",
					"name": "",
					"type": "uint256"
				}
			],
			"stateMutability": "view",
			"type": "function"
		},
		{
			"inputs": [
				{
					"internalType": "uint256",
					"name": "eventId",
					"type": "uint256"
				},
				{
					"internalType": "address",
					"name": "user",
					"type": "address"
				}
			],
			"name": "getUserBet",
			"outputs": [
				{
					"internalType": "uint256",
					"name": "amount",
					"type": "uint256"
				},
				{
					"internalType": "uint256",
					"name": "option",
					"type": "uint256"
				},
				{
					"internalType": "bool",
					"name": "claimed",
					"type": "bool"
				}
			],
			"stateMutability": "view",
			"type": "function"
		},
		{
			"inputs": [],
			"name": "owner",
			"outputs": [
				{
					"internalType": "address",
					"name": "",
					"type": "address"
				}
			],
			"stateMutability": "view",
			"type": "function"
		},
		{
			"inputs": [
				{
					"internalType": "uint256",
					"name": "eventId",
					"type": "uint256"
				},
				{
					"internalType": "uint256",
					"name": "option",
					"type": "uint256"
				}
			],
			"name": "placeBet",
			"outputs": [],
			"stateMutability": "payable",
			"type": "function"
		},
		{
			"inputs": [],
			"name": "platformFeePercent",
			"outputs": [
				{
					"internalType": "uint256",
					"name": "",
					"type": "uint256"
				}
			],
			"stateMutability": "view",
			"type": "function"
		},
		{
			"inputs": [],
			"name": "withdrawFees",
			"outputs": [],
			"stateMutability": "nonpayable",
			"type": "function"
		}
	]
}